{
  "contractName": "KwikTrustMarketplace",
  "abi": [
    {
      "anonymous": false,
      "inputs": [
        {
          "indexed": false,
          "internalType": "uint256",
          "name": "id",
          "type": "uint256"
        },
        {
          "indexed": false,
          "internalType": "address",
          "name": "buyer",
          "type": "address"
        },
        {
          "indexed": false,
          "internalType": "uint256",
          "name": "askingPrice",
          "type": "uint256"
        }
      ],
      "name": "BidClaimed",
      "type": "event"
    },
    {
      "anonymous": false,
      "inputs": [
        {
          "indexed": false,
          "internalType": "uint256",
          "name": "itemId",
          "type": "uint256"
        },
        {
          "indexed": false,
          "internalType": "uint256",
          "name": "tokenId",
          "type": "uint256"
        },
        {
          "indexed": false,
          "internalType": "address",
          "name": "tokenAddress",
          "type": "address"
        },
        {
          "indexed": false,
          "internalType": "uint256",
          "name": "price",
          "type": "uint256"
        },
        {
          "indexed": true,
          "internalType": "address",
          "name": "owner",
          "type": "address"
        },
        {
          "indexed": true,
          "internalType": "address",
          "name": "buyer",
          "type": "address"
        }
      ],
      "name": "Bought",
      "type": "event"
    },
    {
      "anonymous": false,
      "inputs": [
        {
          "indexed": false,
          "internalType": "address",
          "name": "_to",
          "type": "address"
        },
        {
          "indexed": false,
          "internalType": "uint256",
          "name": "_tokenId",
          "type": "uint256"
        },
        {
          "indexed": false,
          "internalType": "address",
          "name": "tokenAddress",
          "type": "address"
        }
      ],
      "name": "DeList",
      "type": "event"
    },
    {
      "anonymous": false,
      "inputs": [
        {
          "indexed": false,
          "internalType": "address",
          "name": "_to",
          "type": "address"
        },
        {
          "indexed": false,
          "internalType": "uint256[]",
          "name": "_tokenId",
          "type": "uint256[]"
        },
        {
          "indexed": false,
          "internalType": "address",
          "name": "tokenAddress",
          "type": "address"
        }
      ],
      "name": "DeListBulk",
      "type": "event"
    },
    {
      "anonymous": false,
      "inputs": [
        {
          "indexed": false,
          "internalType": "address",
          "name": "_highestBidder",
          "type": "address"
        },
        {
          "indexed": false,
          "internalType": "uint256",
          "name": "_price",
          "type": "uint256"
        }
      ],
      "name": "HighBidder",
      "type": "event"
    },
    {
      "anonymous": false,
      "inputs": [
        {
          "indexed": false,
          "internalType": "uint256",
          "name": "id",
          "type": "uint256"
        },
        {
          "indexed": false,
          "internalType": "uint256",
          "name": "tokenId",
          "type": "uint256"
        },
        {
          "indexed": false,
          "internalType": "address",
          "name": "tokenAddress",
          "type": "address"
        },
        {
          "indexed": false,
          "internalType": "uint256",
          "name": "askingPrice",
          "type": "uint256"
        }
      ],
      "name": "ItemAdded",
      "type": "event"
    },
    {
      "anonymous": false,
      "inputs": [
        {
          "indexed": false,
          "internalType": "uint256",
          "name": "itemId",
          "type": "uint256"
        },
        {
          "indexed": false,
          "internalType": "uint256[]",
          "name": "tokenId",
          "type": "uint256[]"
        },
        {
          "indexed": false,
          "internalType": "address",
          "name": "tokenAddress",
          "type": "address"
        },
        {
          "indexed": false,
          "internalType": "uint256",
          "name": "price",
          "type": "uint256"
        },
        {
          "indexed": true,
          "internalType": "address",
          "name": "owner",
          "type": "address"
        }
      ],
      "name": "OfferedMultiple",
      "type": "event"
    },
    {
      "anonymous": false,
      "inputs": [
        {
          "indexed": false,
          "internalType": "uint256",
          "name": "itemId",
          "type": "uint256"
        },
        {
          "indexed": false,
          "internalType": "uint256",
          "name": "tokenId",
          "type": "uint256"
        },
        {
          "indexed": false,
          "internalType": "address",
          "name": "tokenAddress",
          "type": "address"
        },
        {
          "indexed": false,
          "internalType": "uint256",
          "name": "price",
          "type": "uint256"
        },
        {
          "indexed": true,
          "internalType": "address",
          "name": "owner",
          "type": "address"
        }
      ],
      "name": "OfferedSingle",
      "type": "event"
    },
    {
      "anonymous": false,
      "inputs": [
        {
          "indexed": true,
          "internalType": "address",
          "name": "previousOwner",
          "type": "address"
        },
        {
          "indexed": true,
          "internalType": "address",
          "name": "newOwner",
          "type": "address"
        }
      ],
      "name": "OwnershipTransferred",
      "type": "event"
    },
    {
      "anonymous": false,
      "inputs": [
        {
          "indexed": true,
          "internalType": "bytes32",
          "name": "role",
          "type": "bytes32"
        },
        {
          "indexed": true,
          "internalType": "bytes32",
          "name": "previousAdminRole",
          "type": "bytes32"
        },
        {
          "indexed": true,
          "internalType": "bytes32",
          "name": "newAdminRole",
          "type": "bytes32"
        }
      ],
      "name": "RoleAdminChanged",
      "type": "event"
    },
    {
      "anonymous": false,
      "inputs": [
        {
          "indexed": true,
          "internalType": "bytes32",
          "name": "role",
          "type": "bytes32"
        },
        {
          "indexed": true,
          "internalType": "address",
          "name": "account",
          "type": "address"
        },
        {
          "indexed": true,
          "internalType": "address",
          "name": "sender",
          "type": "address"
        }
      ],
      "name": "RoleGranted",
      "type": "event"
    },
    {
      "anonymous": false,
      "inputs": [
        {
          "indexed": true,
          "internalType": "bytes32",
          "name": "role",
          "type": "bytes32"
        },
        {
          "indexed": true,
          "internalType": "address",
          "name": "account",
          "type": "address"
        },
        {
          "indexed": true,
          "internalType": "address",
          "name": "sender",
          "type": "address"
        }
      ],
      "name": "RoleRevoked",
      "type": "event"
    },
    {
      "anonymous": false,
      "inputs": [
        {
          "indexed": false,
          "internalType": "address",
          "name": "_to",
          "type": "address"
        },
        {
          "indexed": false,
          "internalType": "uint256[]",
          "name": "_tokenId",
          "type": "uint256[]"
        },
        {
          "indexed": false,
          "internalType": "address",
          "name": "tokenAddress",
          "type": "address"
        }
      ],
      "name": "TransferMultipleNft",
      "type": "event"
    },
    {
      "anonymous": false,
      "inputs": [
        {
          "indexed": false,
          "internalType": "address",
          "name": "_to",
          "type": "address"
        },
        {
          "indexed": false,
          "internalType": "uint256",
          "name": "_tokenId",
          "type": "uint256"
        },
        {
          "indexed": false,
          "internalType": "address",
          "name": "tokenAddress",
          "type": "address"
        }
      ],
      "name": "TransferSingleNft",
      "type": "event"
    },
    {
      "inputs": [],
      "name": "DEFAULT_ADMIN_ROLE",
      "outputs": [
        {
          "internalType": "bytes32",
          "name": "",
          "type": "bytes32"
        }
      ],
      "stateMutability": "view",
      "type": "function"
    },
    {
      "inputs": [],
      "name": "TRANSFER_ROLE",
      "outputs": [
        {
          "internalType": "bytes32",
          "name": "",
          "type": "bytes32"
        }
      ],
      "stateMutability": "view",
      "type": "function"
    },
    {
      "inputs": [
        {
          "internalType": "address",
          "name": "",
          "type": "address"
        },
        {
          "internalType": "uint256",
          "name": "",
          "type": "uint256"
        }
      ],
      "name": "activeItems",
      "outputs": [
        {
          "internalType": "bool",
          "name": "",
          "type": "bool"
        }
      ],
      "stateMutability": "view",
      "type": "function"
    },
    {
      "inputs": [],
      "name": "biddingItems",
      "outputs": [
        {
          "internalType": "uint256",
          "name": "",
          "type": "uint256"
        }
      ],
      "stateMutability": "view",
      "type": "function"
    },
    {
      "inputs": [
        {
          "internalType": "bytes32",
          "name": "role",
          "type": "bytes32"
        }
      ],
      "name": "getRoleAdmin",
      "outputs": [
        {
          "internalType": "bytes32",
          "name": "",
          "type": "bytes32"
        }
      ],
      "stateMutability": "view",
      "type": "function"
    },
    {
      "inputs": [
        {
          "internalType": "bytes32",
          "name": "role",
          "type": "bytes32"
        },
        {
          "internalType": "address",
          "name": "account",
          "type": "address"
        }
      ],
      "name": "grantRole",
      "outputs": [],
      "stateMutability": "nonpayable",
      "type": "function"
    },
    {
      "inputs": [
        {
          "internalType": "bytes32",
          "name": "role",
          "type": "bytes32"
        },
        {
          "internalType": "address",
          "name": "account",
          "type": "address"
        }
      ],
      "name": "hasRole",
      "outputs": [
        {
          "internalType": "bool",
          "name": "",
          "type": "bool"
        }
      ],
      "stateMutability": "view",
      "type": "function"
    },
    {
      "inputs": [],
      "name": "itemCount",
      "outputs": [
        {
          "internalType": "uint256",
          "name": "",
          "type": "uint256"
        }
      ],
      "stateMutability": "view",
      "type": "function"
    },
    {
      "inputs": [
        {
          "internalType": "uint256",
          "name": "",
          "type": "uint256"
        },
        {
          "internalType": "address",
          "name": "",
          "type": "address"
        }
      ],
      "name": "items",
      "outputs": [
        {
          "internalType": "uint256",
          "name": "tokenId",
          "type": "uint256"
        },
        {
          "internalType": "contract IERC20",
          "name": "token",
          "type": "address"
        },
        {
          "internalType": "uint256",
          "name": "price",
          "type": "uint256"
        },
        {
          "internalType": "address",
          "name": "tokenAddress",
          "type": "address"
        },
        {
          "internalType": "address payable",
          "name": "owner",
          "type": "address"
        }
      ],
      "stateMutability": "view",
      "type": "function"
    },
    {
      "inputs": [
        {
          "internalType": "uint256",
          "name": "",
          "type": "uint256"
        },
        {
          "internalType": "address",
          "name": "",
          "type": "address"
        }
      ],
      "name": "itemsForAuction",
      "outputs": [
        {
          "internalType": "uint256",
          "name": "tokenId",
          "type": "uint256"
        },
        {
          "internalType": "address",
          "name": "tokenAddress",
          "type": "address"
        },
        {
          "internalType": "contract IERC20",
          "name": "token",
          "type": "address"
        },
        {
          "internalType": "address payable",
          "name": "owner",
          "type": "address"
        },
        {
          "internalType": "uint256",
          "name": "askingPrice",
          "type": "uint256"
        },
        {
          "internalType": "address",
          "name": "highestBidder",
          "type": "address"
        },
        {
          "internalType": "uint256",
          "name": "endTime",
          "type": "uint256"
        }
      ],
      "stateMutability": "view",
      "type": "function"
    },
    {
      "inputs": [],
      "name": "owner",
      "outputs": [
        {
          "internalType": "address",
          "name": "",
          "type": "address"
        }
      ],
      "stateMutability": "view",
      "type": "function"
    },
    {
      "inputs": [],
      "name": "renounceOwnership",
      "outputs": [],
      "stateMutability": "nonpayable",
      "type": "function"
    },
    {
      "inputs": [
        {
          "internalType": "bytes32",
          "name": "role",
          "type": "bytes32"
        },
        {
          "internalType": "address",
          "name": "account",
          "type": "address"
        }
      ],
      "name": "renounceRole",
      "outputs": [],
      "stateMutability": "nonpayable",
      "type": "function"
    },
    {
      "inputs": [
        {
          "internalType": "bytes32",
          "name": "role",
          "type": "bytes32"
        },
        {
          "internalType": "address",
          "name": "account",
          "type": "address"
        }
      ],
      "name": "revokeRole",
      "outputs": [],
      "stateMutability": "nonpayable",
      "type": "function"
    },
    {
      "inputs": [
        {
          "internalType": "bytes4",
          "name": "interfaceId",
          "type": "bytes4"
        }
      ],
      "name": "supportsInterface",
      "outputs": [
        {
          "internalType": "bool",
          "name": "",
          "type": "bool"
        }
      ],
      "stateMutability": "view",
      "type": "function"
    },
    {
      "inputs": [
        {
          "internalType": "address",
          "name": "newOwner",
          "type": "address"
        }
      ],
      "name": "transferOwnership",
      "outputs": [],
      "stateMutability": "nonpayable",
      "type": "function"
    },
    {
      "inputs": [],
      "name": "__KwikTrustMarketplace_init",
      "outputs": [],
      "stateMutability": "nonpayable",
      "type": "function"
    },
    {
      "inputs": [
        {
          "internalType": "contract IERC20",
          "name": "_token",
          "type": "address"
        },
        {
          "internalType": "uint256",
          "name": "_tokenId",
          "type": "uint256"
        },
        {
          "internalType": "address",
          "name": "_nftAddress",
          "type": "address"
        },
        {
          "internalType": "uint256",
          "name": "_price",
          "type": "uint256"
        }
      ],
      "name": "makeItem",
      "outputs": [],
      "stateMutability": "nonpayable",
      "type": "function"
    },
    {
      "inputs": [
        {
          "internalType": "contract IERC20",
          "name": "_token",
          "type": "address"
        },
        {
          "internalType": "uint256[]",
          "name": "_tokenId",
          "type": "uint256[]"
        },
        {
          "internalType": "address",
          "name": "_nftAddress",
          "type": "address"
        },
        {
          "internalType": "uint256",
          "name": "_price",
          "type": "uint256"
        }
      ],
      "name": "makeItemBulk",
      "outputs": [],
      "stateMutability": "nonpayable",
      "type": "function"
    },
    {
      "inputs": [
        {
          "internalType": "uint256",
          "name": "_itemId",
          "type": "uint256"
        },
        {
          "internalType": "address",
          "name": "_nftAddress",
          "type": "address"
        },
        {
          "internalType": "uint256",
          "name": "_amount",
          "type": "uint256"
        }
      ],
      "name": "purchaseItem",
      "outputs": [],
      "stateMutability": "nonpayable",
      "type": "function"
    },
    {
      "inputs": [
        {
          "internalType": "address",
          "name": "_to",
          "type": "address"
        },
        {
          "internalType": "uint256[]",
          "name": "_tokenIDs",
          "type": "uint256[]"
        },
        {
          "internalType": "address",
          "name": "_nftAddress",
          "type": "address"
        }
      ],
      "name": "transferNftBunch",
      "outputs": [],
      "stateMutability": "nonpayable",
      "type": "function"
    },
    {
      "inputs": [
        {
          "internalType": "address",
          "name": "_to",
          "type": "address"
        },
        {
          "internalType": "uint256",
          "name": "_tokenID",
          "type": "uint256"
        },
        {
          "internalType": "address",
          "name": "_nftAddress",
          "type": "address"
        }
      ],
      "name": "transferNft",
      "outputs": [],
      "stateMutability": "nonpayable",
      "type": "function"
    },
    {
      "inputs": [
        {
          "internalType": "uint256",
          "name": "_tokenId",
          "type": "uint256"
        },
        {
          "internalType": "address",
          "name": "_nftAddress",
          "type": "address"
        }
      ],
      "name": "deListNft",
      "outputs": [],
      "stateMutability": "nonpayable",
      "type": "function"
    },
    {
      "inputs": [
        {
          "internalType": "uint256[]",
          "name": "_tokenId",
          "type": "uint256[]"
        },
        {
          "internalType": "address",
          "name": "_nftAddress",
          "type": "address"
        }
      ],
      "name": "deListBulkNft",
      "outputs": [],
      "stateMutability": "nonpayable",
      "type": "function"
    },
    {
      "inputs": [
        {
          "internalType": "uint256",
          "name": "_tokenId",
          "type": "uint256"
        },
        {
          "internalType": "address",
          "name": "_nftAddress",
          "type": "address"
        },
        {
          "internalType": "uint256",
          "name": "_askingPrice",
          "type": "uint256"
        },
        {
          "internalType": "uint256",
          "name": "_time",
          "type": "uint256"
        },
        {
          "internalType": "contract IERC20",
          "name": "_token",
          "type": "address"
        }
      ],
      "name": "addItemToBid",
      "outputs": [
        {
          "internalType": "uint256",
          "name": "",
          "type": "uint256"
        }
      ],
      "stateMutability": "nonpayable",
      "type": "function"
    },
    {
      "inputs": [
        {
          "internalType": "uint256",
          "name": "_tokenId",
          "type": "uint256"
        },
        {
          "internalType": "address",
          "name": "_nftAddress",
          "type": "address"
        },
        {
          "internalType": "uint256",
          "name": "_amount",
          "type": "uint256"
        }
      ],
      "name": "placeBid",
      "outputs": [],
      "stateMutability": "nonpayable",
      "type": "function"
    },
    {
      "inputs": [
        {
          "internalType": "uint256",
          "name": "_tokenId",
          "type": "uint256"
        },
        {
          "internalType": "address",
          "name": "_nftAddress",
          "type": "address"
        }
      ],
      "name": "claimToken",
      "outputs": [],
      "stateMutability": "nonpayable",
      "type": "function"
    }
  ],
  "bytecode": "0x608060405234801561001057600080fd5b50612baa806100206000396000f3fe608060405234801561001057600080fd5b50600436106101a95760003560e01c80638da5cb5b116100f9578063cf7cf2c711610097578063eca4f6a311610071578063eca4f6a314610489578063f1e2f348146104b5578063f2fde38b146104c8578063fb803f4d146104db57600080fd5b8063cf7cf2c7146103c5578063d547741f146103ce578063e16f7b85146103e157600080fd5b8063a217fddf116100d3578063a217fddf14610384578063bbab14b91461038c578063bcb1d6871461039f578063c49662c5146103b257600080fd5b80638da5cb5b1461034357806391d148541461035e578063a0b4fe941461037157600080fd5b80635be4288c116101665780636bfb0d01116101405780636bfb0d011461030c578063715018a6146103155780637d8096711461031d578063823c5fcb1461033057600080fd5b80635be4288c146102de578063609ed3bd146102f15780636136f3f21461030457600080fd5b806301ffc9a7146101ae578063206b60f9146101d6578063248a9ca31461020b5780632f2ff15d1461022e57806336568abe1461024357806354ffe77e14610256575b600080fd5b6101c16101bc3660046126fd565b6104ee565b60405190151581526020015b60405180910390f35b6101fd7f8502233096d909befbda0999bb8ea2f3a6be3c138b9fbf003752a4c8bce86f6c81565b6040519081526020016101cd565b6101fd6102193660046126b6565b600090815260c9602052604090206001015490565b61024161023c3660046126ce565b610525565b005b6102416102513660046126ce565b610550565b6102ac6102643660046126ce565b60fc6020908152600092835260408084209091529082529020805460018201546002830154600384015460049094015492936001600160a01b03928316939192908116911685565b604080519586526001600160a01b0394851660208701528501929092528216606084015216608082015260a0016101cd565b6102416102ec3660046125ea565b6105d3565b6102416102ff366004612725565b610757565b6102416109db565b6101fd60fb5481565b610241610a62565b61024161032b3660046126ce565b610ac8565b61024161033e3660046127c4565b610c71565b6065546040516001600160a01b0390911681526020016101cd565b6101c161036c3660046126ce565b610f38565b61024161037f36600461278d565b610f63565b6101fd600081565b6101fd61039a3660046127fb565b61112d565b6102416103ad36600461255d565b611476565b6102416103c03660046126ce565b611612565b6101fd60fd5481565b6102416103dc3660046126ce565b611968565b6104466103ef3660046126ce565b60fe602090815260009283526040808420909152908252902080546001820154600283015460038401546004850154600586015460069096015494956001600160a01b039485169593851694928316939192169087565b604080519788526001600160a01b039687166020890152948616948701949094529184166060860152608085015290911660a083015260c082015260e0016101cd565b6101c16104973660046125bf565b60ff6020818152600093845260408085209091529183529120541681565b6102416104c33660046127c4565b61198e565b6102416104d6366004612541565b611c1f565b6102416104e9366004612620565b611ce7565b60006001600160e01b03198216637965db0b60e01b148061051f57506301ffc9a760e01b6001600160e01b03198316145b92915050565b600082815260c960205260409020600101546105418133611f66565b61054b8383611fca565b505050565b6001600160a01b03811633146105c55760405162461bcd60e51b815260206004820152602f60248201527f416363657373436f6e74726f6c3a2063616e206f6e6c792072656e6f756e636560448201526e103937b632b9903337b91039b2b63360891b60648201526084015b60405180910390fd5b6105cf8282612050565b5050565b7f8502233096d909befbda0999bb8ea2f3a6be3c138b9fbf003752a4c8bce86f6c6105fe8133611f66565b600083815260fc602090815260408083206001600160a01b03808716855290835292819020815160a081018352815481526001820154851693810193909352600281015483830152600381015484166060840181905260049182015490941660808401529051632142170760e11b81529192916342842e0e916106879130918a918a91016128ff565b600060405180830381600087803b1580156106a157600080fd5b505af11580156106b5573d6000803e3d6000fd5b505050600085815260fc602090815260408083206001600160a01b038881168086529184528285208581556001810180546001600160a01b031990811690915560028201969096556003810180548716905560040180549095169094558151938a1684529183018890528201527fcca86c209947a2ba2167a2f1b5c318014df17dfb7d04bfe98006d71b9433451c915060600160405180910390a15050505050565b6002600154141561077a5760405162461bcd60e51b81526004016105bc90612a2e565b6002600155806107b55760405162461bcd60e51b81526004016105bc90602080825260049082015263183c181960e11b604082015260600190565b60005b83518110156109875760fb80549060006107d183612b18565b9190505550826001600160a01b03166323b872dd333087858151811061080757634e487b7160e01b600052603260045260246000fd5b60200260200101516040518463ffffffff1660e01b815260040161082d939291906128ff565b600060405180830381600087803b15801561084757600080fd5b505af115801561085b573d6000803e3d6000fd5b505050506040518060a0016040528085838151811061088a57634e487b7160e01b600052603260045260246000fd5b60200260200101518152602001866001600160a01b03168152602001838152602001846001600160a01b03168152602001336001600160a01b031681525060fc60008684815181106108ec57634e487b7160e01b600052603260045260246000fd5b602090810291909101810151825281810192909252604090810160009081206001600160a01b0380891683529084529082902084518155928401516001840180549183166001600160a01b03199283161790559184015160028401556060840151600384018054918316918416919091179055608090930151600490920180549290931691161790558061097f81612b18565b9150506107b8565b50336001600160a01b03167f164c984887c38e4bec91909766c7c6be70fead4e4320f2568ce0ea9cc575790960fb548585856040516109c99493929190612a65565b60405180910390a25050600180555050565b600054610100900460ff16806109f4575060005460ff16155b610a105760405162461bcd60e51b81526004016105bc906129e0565b600054610100900460ff16158015610a32576000805461ffff19166101011790555b610a3a6120b7565b610a42612116565b610a4d600033612185565b8015610a5f576000805461ff00191690555b50565b6065546001600160a01b03163314610abc5760405162461bcd60e51b815260206004820181905260248201527f4f776e61626c653a2063616c6c6572206973206e6f7420746865206f776e657260448201526064016105bc565b610ac6600061218f565b565b60026001541415610aeb5760405162461bcd60e51b81526004016105bc90612a2e565b6002600155600082815260fc602090815260408083206001600160a01b038581168552925290912060040154163314610b4f5760405162461bcd60e51b81526004016105bc906020808252600490820152633078303560e01b604082015260600190565b600082815260fc602090815260408083206001600160a01b03808616808652919093529281902060049081015491516323b872dd60e01b81526323b872dd93610b9f9330939116918891016128ff565b600060405180830381600087803b158015610bb957600080fd5b505af1158015610bcd573d6000803e3d6000fd5b505050600083815260fc602090815260408083206001600160a01b0386168085529083528184208481556001810180546001600160a01b0319908116909155600282019590955560038101805486169055600401805490941690935580513381529182018690528101919091527f43d28a5cba7f615c678abc6d80fcefd540bcb624c33f03fa9fd0c3b04f756a6a91506060015b60405180910390a1505060018055565b60026001541415610c945760405162461bcd60e51b81526004016105bc90612a2e565b60026001818155600085815260fc602090815260408083206001600160a01b03808916855290835292819020815160a08101835281548152948101548416928501929092529381015493830184905260038101548216606084015260040154166080820152908415801590610d0b575060fb548511155b610d405760405162461bcd60e51b81526004016105bc906020808252600490820152633078303360e01b604082015260600190565b80831015610d795760405162461bcd60e51b81526004016105bc906020808252600490820152630c1e0c0d60e21b604082015260600190565b81602001516001600160a01b03166323b872dd338460800151846040518463ffffffff1660e01b8152600401610db1939291906128ff565b602060405180830381600087803b158015610dcb57600080fd5b505af1158015610ddf573d6000803e3d6000fd5b505050506040513d601f19601f82011682018060405250810190610e039190612696565b5081516040516323b872dd60e01b81526001600160a01b038616916323b872dd91610e359130913391906004016128ff565b600060405180830381600087803b158015610e4f57600080fd5b505af1158015610e63573d6000803e3d6000fd5b505060fb8054925090506000610e7883612b01565b9091555050600085815260fc602090815260408083206001600160a01b038881168086529184528285208581556001810180546001600160a01b0319908116909155600282019690965560038101805487169055600401805490951690945560808681015187518885015185518d815296870191909152938501929092526060840192909252339316917f8499da5cbed7f4c76667f49e6eb9fbbec401e155d096505159678f2c21e6223f910160405180910390a3505060018055505050565b600091825260c9602090815260408084206001600160a01b0393909316845291905290205460ff1690565b60026001541415610f865760405162461bcd60e51b81526004016105bc90612a2e565b600260015580610fc15760405162461bcd60e51b81526004016105bc906020808252600490820152633078303160e01b604082015260600190565b60fb8054906000610fd183612b18565b90915550506040516323b872dd60e01b81526001600160a01b038316906323b872dd90611006903390309088906004016128ff565b600060405180830381600087803b15801561102057600080fd5b505af1158015611034573d6000803e3d6000fd5b50506040805160a0810182528681526001600160a01b03808916602080840191825283850188815289841660608601818152336080880181815260008f815260fc87528a812094815293909552918890209651875593516001870180549187166001600160a01b031992831617905591516002870155925160038601805491861691831691909117905590516004909401805494909316931692909217905560fb5491519093507f70116ca3dcbbb3ae25e77e8fe1ce9d7bc82201fea2142ef972f6cab5c54c8a6d92506109c9919087908790879093845260208401929092526001600160a01b03166040830152606082015260800190565b6000600260015414156111525760405162461bcd60e51b81526004016105bc90612a2e565b60026001558361118d5760405162461bcd60e51b81526004016105bc906020808252600490820152633078303760e01b604082015260600190565b8242106111c55760405162461bcd60e51b81526004016105bc90602080825260049082015263060f060760e31b604082015260600190565b6040518060e00160405280878152602001866001600160a01b03168152602001836001600160a01b03168152602001336001600160a01b0316815260200185815260200160006001600160a01b031681526020018481525060fe60008881526020019081526020016000206000876001600160a01b03166001600160a01b031681526020019081526020016000206000820151816000015560208201518160010160006101000a8154816001600160a01b0302191690836001600160a01b0316021790555060408201518160020160006101000a8154816001600160a01b0302191690836001600160a01b0316021790555060608201518160030160006101000a8154816001600160a01b0302191690836001600160a01b031602179055506080820151816004015560a08201518160050160006101000a8154816001600160a01b0302191690836001600160a01b0316021790555060c082015181600601559050508560fe60008881526020019081526020016000206000876001600160a01b03166001600160a01b03168152602001908152602001600020600001541461137e57634e487b7160e01b600052600160045260246000fd5b6001600160a01b038516600081815260ff602090815260408083208a845290915290819020805460ff19166001179055516323b872dd60e01b81526323b872dd906113d190339030908b906004016128ff565b600060405180830381600087803b1580156113eb57600080fd5b505af11580156113ff573d6000803e3d6000fd5b505060fd805492509050600061141483612b18565b909155505060408051878152602081018890526001600160a01b038716818301526060810186905290517fd251be2f9ac8e7aebe1bdb7cef332833795022b0ba7e486da68ebe135f8ed3179181900360800190a1505060018055509192915050565b7f8502233096d909befbda0999bb8ea2f3a6be3c138b9fbf003752a4c8bce86f6c6114a18133611f66565b60005b83518110156115d057826001600160a01b03166342842e0e30878785815181106114de57634e487b7160e01b600052603260045260246000fd5b60200260200101516040518463ffffffff1660e01b8152600401611504939291906128ff565b600060405180830381600087803b15801561151e57600080fd5b505af1158015611532573d6000803e3d6000fd5b5050505060fc600085838151811061155a57634e487b7160e01b600052603260045260246000fd5b602090810291909101810151825281810192909252604090810160009081206001600160a01b038716825290925281208181556001810180546001600160a01b031990811690915560028201929092556003810180548316905560040180549091169055806115c881612b18565b9150506114a4565b507f7aa01d722e1d19a8453dc692165678aeffcb5909c8aa96d5de1f50ede165b8bf84848460405161160493929190612978565b60405180910390a150505050565b600260015414156116355760405162461bcd60e51b81526004016105bc90612a2e565b6002600155600082815260fe602090815260408083206001600160a01b038516845290915290206006015442116116975760405162461bcd60e51b81526004016105bc906020808252600490820152633078313160e01b604082015260600190565b600082815260fe602090815260408083206001600160a01b038581168552925290912060050154163314806116f25750600082815260fe602090815260408083206001600160a01b0385811685529252909120600301541633145b6117275760405162461bcd60e51b81526004016105bc90602080825260049082015263183c189960e11b604082015260600190565b600082815260fe602090815260408083206001600160a01b038086168086528285528386206001810180548416885260ff8752858820825489528752858820805460ff191690555460058201549290975292909452905491516323b872dd60e01b8152938116936323b872dd936117a793309391909116916004016128ff565b600060405180830381600087803b1580156117c157600080fd5b505af11580156117d5573d6000803e3d6000fd5b505050600083815260fe602090815260408083206001600160a01b03868116855292529182902060028101546003820154600492830154945163a9059cbb60e01b81529084169281019290925260248201939093529116915063a9059cbb90604401602060405180830381600087803b15801561185157600080fd5b505af1158015611865573d6000803e3d6000fd5b505050506040513d601f19601f820116820180604052508101906118899190612696565b50600082815260fe602090815260408083206001600160a01b038516845290915281208181556001810180546001600160a01b0319908116909155600282018054821690556003820180548216905560048201839055600582018054909116905560060181905560fd8054916118fe83612b01565b9091555050600082815260fe602090815260408083206001600160a01b03851684528252918290206004015482518581523392810192909252918101919091527fe68daa9f0be9a647eb4b9d00ba8932ad8171b86ec8cd767d14fd2ae946af3d2190606001610c61565b600082815260c960205260409020600101546119848133611f66565b61054b8383612050565b600083815260fe602090815260408083206001600160a01b038616845290915290206006015442106119eb5760405162461bcd60e51b81526004016105bc906020808252600490820152633078303960e01b604082015260600190565b600083815260fe602090815260408083206001600160a01b03861684529091529020600401548111611a485760405162461bcd60e51b81526004016105bc906020808252600490820152630307831360e41b604082015260600190565b600083815260fe602090815260408083206001600160a01b038681168552925290912060020154166323b872dd3330846040518463ffffffff1660e01b8152600401611a96939291906128ff565b602060405180830381600087803b158015611ab057600080fd5b505af1158015611ac4573d6000803e3d6000fd5b505050506040513d601f19601f82011682018060405250810190611ae89190612696565b50600083815260fe602090815260408083206001600160a01b038616845290915290206005810180546001600160a01b03191633908117909155600490910182905515611be157600083815260fe602090815260408083206001600160a01b03868116855292529182902060028101546005820154600492830154945163a9059cbb60e01b815290841692810192909252602482019390935291169063a9059cbb90604401602060405180830381600087803b158015611ba757600080fd5b505af1158015611bbb573d6000803e3d6000fd5b505050506040513d601f19601f82011682018060405250810190611bdf9190612696565b505b60408051338152602081018390527fad0ec598aa8b2aa02739dd85f9baefb78ad40e359e04fd96c54af3e21e662863910160405180910390a1505050565b6065546001600160a01b03163314611c795760405162461bcd60e51b815260206004820181905260248201527f4f776e61626c653a2063616c6c6572206973206e6f7420746865206f776e657260448201526064016105bc565b6001600160a01b038116611cde5760405162461bcd60e51b815260206004820152602660248201527f4f776e61626c653a206e6577206f776e657220697320746865207a65726f206160448201526564647265737360d01b60648201526084016105bc565b610a5f8161218f565b60026001541415611d0a5760405162461bcd60e51b81526004016105bc90612a2e565b600260015560005b82811015611f1f573360fc6000868685818110611d3f57634e487b7160e01b600052603260045260246000fd5b6020908102929092013583525081810192909252604090810160009081206001600160a01b038088168352935220600401541614611da85760405162461bcd60e51b81526004016105bc90602080825260049082015263183c181b60e11b604082015260600190565b816001600160a01b03166323b872dd3060fc6000888887818110611ddc57634e487b7160e01b600052603260045260246000fd5b6020908102929092013583525081810192909252604090810160009081206001600160a01b03808a1683529352206004015416878786818110611e2f57634e487b7160e01b600052603260045260246000fd5b905060200201356040518463ffffffff1660e01b8152600401611e54939291906128ff565b600060405180830381600087803b158015611e6e57600080fd5b505af1158015611e82573d6000803e3d6000fd5b5050505060fc6000858584818110611eaa57634e487b7160e01b600052603260045260246000fd5b6020908102929092013583525081810192909252604090810160009081206001600160a01b038616825290925281208181556001810180546001600160a01b03199081169091556002820192909255600381018054831690556004018054909116905580611f1781612b18565b915050611d12565b507f14d2dd78f4e81d51b9b46b92435d6d228063f73d5176491701e4ff0ff4293a7033848484604051611f559493929190612923565b60405180910390a150506001805550565b611f708282610f38565b6105cf57611f88816001600160a01b031660146121e1565b611f938360206121e1565b604051602001611fa492919061288a565b60408051601f198184030181529082905262461bcd60e51b82526105bc916004016129ad565b611fd48282610f38565b6105cf57600082815260c9602090815260408083206001600160a01b03851684529091529020805460ff1916600117905561200c3390565b6001600160a01b0316816001600160a01b0316837f2f8788117e7eff1d82e926ec794901d17c78024a50270940304540a733656f0d60405160405180910390a45050565b61205a8282610f38565b156105cf57600082815260c9602090815260408083206001600160a01b0385168085529252808320805460ff1916905551339285917ff6391f5c32d9c69d2a47ea670b442974b53935d1edc7fd64eb21e047a839171b9190a45050565b600054610100900460ff16806120d0575060005460ff16155b6120ec5760405162461bcd60e51b81526004016105bc906129e0565b600054610100900460ff1615801561210e576000805461ffff19166101011790555b610a4d6123ca565b600054610100900460ff168061212f575060005460ff16155b61214b5760405162461bcd60e51b81526004016105bc906129e0565b600054610100900460ff1615801561216d576000805461ffff19166101011790555b612175612439565b61217d612439565b610a4d612439565b6105cf8282611fca565b606580546001600160a01b038381166001600160a01b0319831681179093556040519116919082907f8be0079c531659141344cd1fd0a4f28419497f9722a3daafe3b4186f6b6457e090600090a35050565b606060006121f0836002612ab2565b6121fb906002612a9a565b67ffffffffffffffff81111561222157634e487b7160e01b600052604160045260246000fd5b6040519080825280601f01601f19166020018201604052801561224b576020820181803683370190505b509050600360fc1b8160008151811061227457634e487b7160e01b600052603260045260246000fd5b60200101906001600160f81b031916908160001a905350600f60fb1b816001815181106122b157634e487b7160e01b600052603260045260246000fd5b60200101906001600160f81b031916908160001a90535060006122d5846002612ab2565b6122e0906001612a9a565b90505b6001811115612374576f181899199a1a9b1b9c1cb0b131b232b360811b85600f166010811061232257634e487b7160e01b600052603260045260246000fd5b1a60f81b82828151811061234657634e487b7160e01b600052603260045260246000fd5b60200101906001600160f81b031916908160001a90535060049490941c9361236d81612b01565b90506122e3565b5083156123c35760405162461bcd60e51b815260206004820181905260248201527f537472696e67733a20686578206c656e67746820696e73756666696369656e7460448201526064016105bc565b9392505050565b600054610100900460ff16806123e3575060005460ff16155b6123ff5760405162461bcd60e51b81526004016105bc906129e0565b600054610100900460ff16158015612421576000805461ffff19166101011790555b600180558015610a5f576000805461ff001916905550565b600054610100900460ff1680612452575060005460ff16155b61246e5760405162461bcd60e51b81526004016105bc906129e0565b600054610100900460ff16158015610a4d576000805461ffff19166101011790558015610a5f576000805461ff001916905550565b600082601f8301126124b3578081fd5b8135602067ffffffffffffffff808311156124d0576124d0612b49565b8260051b604051601f19603f830116810181811084821117156124f5576124f5612b49565b60405284815283810192508684018288018501891015612513578687fd5b8692505b85831015612535578035845292840192600192909201918401612517565b50979650505050505050565b600060208284031215612552578081fd5b81356123c381612b5f565b600080600060608486031215612571578182fd5b833561257c81612b5f565b9250602084013567ffffffffffffffff811115612597578283fd5b6125a3868287016124a3565b92505060408401356125b481612b5f565b809150509250925092565b600080604083850312156125d1578182fd5b82356125dc81612b5f565b946020939093013593505050565b6000806000606084860312156125fe578283fd5b833561260981612b5f565b92506020840135915060408401356125b481612b5f565b600080600060408486031215612634578283fd5b833567ffffffffffffffff8082111561264b578485fd5b818601915086601f83011261265e578485fd5b81358181111561266c578586fd5b8760208260051b8501011115612680578586fd5b602092830195509350508401356125b481612b5f565b6000602082840312156126a7578081fd5b815180151581146123c3578182fd5b6000602082840312156126c7578081fd5b5035919050565b600080604083850312156126e0578182fd5b8235915060208301356126f281612b5f565b809150509250929050565b60006020828403121561270e578081fd5b81356001600160e01b0319811681146123c3578182fd5b6000806000806080858703121561273a578081fd5b843561274581612b5f565b9350602085013567ffffffffffffffff811115612760578182fd5b61276c878288016124a3565b935050604085013561277d81612b5f565b9396929550929360600135925050565b600080600080608085870312156127a2578384fd5b84356127ad81612b5f565b935060208501359250604085013561277d81612b5f565b6000806000606084860312156127d8578081fd5b8335925060208401356127ea81612b5f565b929592945050506040919091013590565b600080600080600060a08688031215612812578283fd5b85359450602086013561282481612b5f565b93506040860135925060608601359150608086013561284281612b5f565b809150509295509295909350565b6000815180845260208085019450808401835b8381101561287f57815187529582019590820190600101612863565b509495945050505050565b7f416363657373436f6e74726f6c3a206163636f756e74200000000000000000008152600083516128c2816017850160208801612ad1565b7001034b99036b4b9b9b4b733903937b6329607d1b60179184019182015283516128f3816028840160208801612ad1565b01602801949350505050565b6001600160a01b039384168152919092166020820152604081019190915260600190565b6001600160a01b03858116825260606020830181905282018490526000906001600160fb1b03851115612954578182fd5b8460051b808760808601378301608001918252929092166040909101529392505050565b600060018060a01b0380861683526060602084015261299a6060840186612850565b9150808416604084015250949350505050565b60208152600082518060208401526129cc816040850160208701612ad1565b601f01601f19169190910160400192915050565b6020808252602e908201527f496e697469616c697a61626c653a20636f6e747261637420697320616c72656160408201526d191e481a5b9a5d1a585b1a5e995960921b606082015260800190565b6020808252601f908201527f5265656e7472616e637947756172643a207265656e7472616e742063616c6c00604082015260600190565b848152608060208201526000612a7e6080830186612850565b6001600160a01b03949094166040830152506060015292915050565b60008219821115612aad57612aad612b33565b500190565b6000816000190483118215151615612acc57612acc612b33565b500290565b60005b83811015612aec578181015183820152602001612ad4565b83811115612afb576000848401525b50505050565b600081612b1057612b10612b33565b506000190190565b6000600019821415612b2c57612b2c612b33565b5060010190565b634e487b7160e01b600052601160045260246000fd5b634e487b7160e01b600052604160045260246000fd5b6001600160a01b0381168114610a5f57600080fdfea2646970667358221220d56bc40f753955719a62639ae816929ce3d2f4612de85ff0f06b253a6c2f43ff64736f6c63430008040033",
  "immutableReferences": {},
  "source": "// SPDX-License-Identifier: MIT\npragma solidity ^0.8.4;\n\nimport \"@openzeppelin/contracts/token/ERC721/IERC721.sol\";\nimport \"@openzeppelin/contracts/token/ERC20/IERC20.sol\";\nimport \"@openzeppelin/contracts/access/AccessControl.sol\";\nimport \"@openzeppelin/contracts-upgradeable/access/OwnableUpgradeable.sol\";\nimport \"@openzeppelin/contracts-upgradeable/security/ReentrancyGuardUpgradeable.sol\";\nimport \"@openzeppelin/contracts-upgradeable/access/AccessControlUpgradeable.sol\";\n\ncontract KwikTrustMarketplace is ReentrancyGuardUpgradeable, OwnableUpgradeable, AccessControlUpgradeable {\n  // AccessControl\n  bytes32 public constant TRANSFER_ROLE = keccak256(\"TRANSFER_ROLE\");\n\n  // token listed NFT in marketplace\n  uint256 public itemCount;\n\n  // struct\n  struct Item {\n    uint256 tokenId;\n    IERC20 token;\n    uint256 price;\n    address tokenAddress;\n    address payable owner;\n  }\n\n  mapping(uint256 => mapping(address => Item)) public items;\n\n  // events\n  event OfferedSingle(uint256 itemId, uint256 tokenId, address tokenAddress, uint256 price, address indexed owner);\n\n  event OfferedMultiple(uint256 itemId, uint256[] tokenId, address tokenAddress, uint256 price, address indexed owner);\n\n  event Bought(\n    uint256 itemId,\n    uint256 tokenId,\n    address tokenAddress,\n    uint256 price,\n    address indexed owner,\n    address indexed buyer\n  );\n\n  event TransferSingleNft(address _to, uint256 _tokenId, address tokenAddress);\n  event TransferMultipleNft(address _to, uint256[] _tokenId, address tokenAddress);\n  event DeList(address _to, uint256 _tokenId, address tokenAddress);\n  event DeListBulk(address _to, uint256[] _tokenId, address tokenAddress);\n\n  // bidding declarations\n  uint256 public biddingItems;\n\n  struct AuctionItem {\n    uint256 tokenId;\n    address tokenAddress;\n    IERC20 token;\n    address payable owner;\n    uint256 askingPrice;\n    address highestBidder;\n    uint256 endTime;\n  }\n\n  mapping(uint256 => mapping(address => AuctionItem)) public itemsForAuction;\n  mapping(address => mapping(uint256 => bool)) public activeItems;\n\n  event ItemAdded(uint256 id, uint256 tokenId, address tokenAddress, uint256 askingPrice);\n  event BidClaimed(uint256 id, address buyer, uint256 askingPrice);\n  event HighBidder(address _highestBidder, uint256 _price);\n\n  /**\n   * @dev Upgradable initializer\n   */\n\n  function __KwikTrustMarketplace_init() external initializer {\n    __ReentrancyGuard_init();\n    __AccessControl_init();\n    _setupRole(DEFAULT_ADMIN_ROLE, _msgSender());\n  }\n\n  /**\n   * @dev list NFT in marketplace\n   * @param _tokenId token id to be listed\n   * @param _price listing price of token\n   * Required Statements\n   *  - 0x01: Price must be greater than 0\n   */\n\n  function makeItem(\n    IERC20 _token,\n    uint256 _tokenId,\n    address _nftAddress,\n    uint256 _price\n  ) external nonReentrant {\n    require(_price > 0, \"0x01\");\n    // increment item count\n    itemCount++;\n    // transfer nft\n    IERC721(_nftAddress).transferFrom(msg.sender, address(this), _tokenId);\n    // add new item to items mapping\n    items[_tokenId][_nftAddress] = Item(_tokenId, _token, _price, _nftAddress, payable(msg.sender));\n    // emit Offered event\n    emit OfferedSingle(itemCount, _tokenId, _nftAddress, _price, msg.sender);\n  }\n\n  /**\n   * @dev list multiple NFTs in marketplace\n   * @param _nftAddress minting contract address\n   * @param _tokenId array of token ids to be listed\n   * @param _price listing price of token\n   * Required Statements\n   *  - 0x02: Price must be greater than 0\n   */\n\n  function makeItemBulk(\n    IERC20 _token,\n    uint256[] memory _tokenId,\n    address _nftAddress,\n    uint256 _price\n  ) external nonReentrant {\n    require(_price > 0, \"0x02\");\n    for (uint256 i = 0; i < _tokenId.length; i++) {\n      // increment item count\n      itemCount++;\n      // transfer nft\n      IERC721(_nftAddress).transferFrom(msg.sender, address(this), _tokenId[i]);\n\n      // add new item to items mapping\n      items[_tokenId[i]][_nftAddress] = Item(_tokenId[i], _token, _price, _nftAddress, payable(msg.sender));\n    }\n    emit OfferedMultiple(itemCount, _tokenId, _nftAddress, _price, msg.sender);\n  }\n\n  /**\n   * @dev purchase NFT from marketplace\n   * @param _itemId NFT token id\n   * @param _nftAddress NFT Contract Adress\n   * Required Statements\n   *  - 0x03: Item Count Must be Greater than or Equal to _itemId\n   *  - 0x04: _amount Must be Must be Greater than or Equal to itemPrice\n   */\n\n  function purchaseItem(\n    uint256 _itemId,\n    address _nftAddress,\n    uint256 _amount\n  ) external nonReentrant {\n    Item memory item = items[_itemId][_nftAddress];\n    uint256 _totalPrice = item.price;\n    require(_itemId > 0 && _itemId <= itemCount, \"0x03\");\n    require(_amount >= _totalPrice, \"0x04\");\n    item.token.transferFrom(msg.sender, item.owner, _totalPrice);\n    // transfer nft to buyer\n    IERC721(_nftAddress).transferFrom(address(this), msg.sender, item.tokenId);\n\n    // decrement item count\n    itemCount--;\n    // delete item from marketplace\n    delete items[_itemId][_nftAddress];\n    // emit Bought event\n    emit Bought(_itemId, item.tokenId, _nftAddress, item.price, item.owner, msg.sender);\n  }\n\n  /**\n   * @dev transfer multiple NFTs\n   * @param _to reciever's address\n   * @param _tokenIDs token ids to be sent\n   */\n\n  function transferNftBunch(\n    address _to,\n    uint256[] memory _tokenIDs,\n    address _nftAddress\n  ) public onlyRole(TRANSFER_ROLE) {\n    for (uint256 i = 0; i < _tokenIDs.length; i++) {\n      //Item memory item = items[_tokenIDs[i]][_nftAddress];\n      IERC721(_nftAddress).safeTransferFrom(address(this), _to, _tokenIDs[i]);\n      delete items[_tokenIDs[i]][_nftAddress];\n    }\n    emit TransferMultipleNft(_to, _tokenIDs, _nftAddress);\n  }\n\n  /**\n   * @dev transfer single NFT\n   * @param _to reciever's address\n   * @param _tokenID token ids to be sent\n   */\n\n  function transferNft(\n    address _to,\n    uint256 _tokenID,\n    address _nftAddress\n  ) public onlyRole(TRANSFER_ROLE) {\n    Item memory item = items[_tokenID][_nftAddress];\n    IERC721(item.tokenAddress).safeTransferFrom(address(this), _to, _tokenID);\n    delete items[_tokenID][_nftAddress];\n    emit TransferSingleNft(_to, _tokenID, _nftAddress);\n  }\n\n  /**\n   * @dev De-list single NFT from martketplace\n   * @param _tokenId NFT tokenId to be delisted\n   * @param _nftAddress NFT Minting address\n   * Required Statements\n   *  - 0x05: Caller Must be Owner of Item\n   */\n\n  function deListNft(uint256 _tokenId, address _nftAddress) external nonReentrant {\n    require(items[_tokenId][_nftAddress].owner == msg.sender, \"0x05\");\n    IERC721(_nftAddress).transferFrom(address(this), items[_tokenId][_nftAddress].owner, _tokenId);\n    delete items[_tokenId][_nftAddress];\n    emit DeList(msg.sender, _tokenId, _nftAddress);\n  }\n\n  /**\n   * @dev De-list Bulk NFT from martketplace\n   * @param _tokenId's of NFT tokenId to be delisted\n   * @param _nftAddress NFT Minting address\n   * Required Statements\n   *  - 0x06: Caller Must be Owner of Item\n   */\n\n  function deListBulkNft(uint256[] calldata _tokenId, address _nftAddress) external nonReentrant {\n    for (uint256 i = 0; i < _tokenId.length; i++) {\n      require(items[_tokenId[i]][_nftAddress].owner == msg.sender, \"0x06\");\n      IERC721(_nftAddress).transferFrom(address(this), items[_tokenId[i]][_nftAddress].owner, _tokenId[i]);\n      delete items[_tokenId[i]][_nftAddress];\n    }\n    emit DeListBulk(msg.sender, _tokenId, _nftAddress);\n  }\n\n  /**\n   * @dev listing an item for bidding\n   * @param _tokenId Token Id of NFT\n   * @param _nftAddress Contract address of NFT\n   * @param _askingPrice mininum price of bidding\n   * @param _time ending time of an auction\n   * @param _token ERC20 token address\n   * Required Statements\n   *  - 0x07: _asking Price must be greater than 0\n   *  - 0x08: _time must be greater than Current Time(block.timestamp)\n   */\n\n  function addItemToBid(\n    uint256 _tokenId,\n    address _nftAddress,\n    uint256 _askingPrice,\n    uint256 _time,\n    IERC20 _token\n  ) external nonReentrant returns (uint256) {\n    require(_askingPrice > 0, \"0x07\");\n    require(block.timestamp < _time, \"0x08\");\n\n    itemsForAuction[_tokenId][_nftAddress] = AuctionItem(\n      _tokenId,\n      _nftAddress,\n      _token,\n      payable(msg.sender),\n      _askingPrice,\n      address(0),\n      _time\n    );\n    assert(itemsForAuction[_tokenId][_nftAddress].tokenId == _tokenId);\n    activeItems[_nftAddress][_tokenId] = true;\n    IERC721(_nftAddress).transferFrom(msg.sender, address(this), _tokenId);\n    biddingItems++;\n    emit ItemAdded(_tokenId, _tokenId, _nftAddress, _askingPrice);\n    return (_tokenId);\n  }\n\n  /***\n   * @dev placing bid for token\n   * @param _tokenId Token Id of NFT\n   * @param _nftAddress Contract address of NFT\n   * @param _amount  Amount enter by user\n   * Required Statements\n   *  - 0x09: EndTime Should be Greater than Current Time\n   *  - 0x10: BidPrice Must be Greater than Asking Price\n   */\n\n  function placeBid(\n    uint256 _tokenId,\n    address _nftAddress,\n    uint256 _amount\n  ) public {\n    require(block.timestamp < itemsForAuction[_tokenId][_nftAddress].endTime, \"0x09\");\n    require(itemsForAuction[_tokenId][_nftAddress].askingPrice < _amount, \"0x10\");\n\n    itemsForAuction[_tokenId][_nftAddress].token.transferFrom(_msgSender(), address(this), _amount);\n    itemsForAuction[_tokenId][_nftAddress].highestBidder = msg.sender;\n    itemsForAuction[_tokenId][_nftAddress].askingPrice = _amount;\n    if (itemsForAuction[_tokenId][_nftAddress].highestBidder != address(0)) {\n      itemsForAuction[_tokenId][_nftAddress].token.transfer(\n        itemsForAuction[_tokenId][_nftAddress].highestBidder,\n        itemsForAuction[_tokenId][_nftAddress].askingPrice\n      );\n    }\n    emit HighBidder(msg.sender, _amount);\n  }\n\n  /***\n   * @dev claim Token\n   * @param _tokenId Token Id of NFT\n   * @param _nftAddress Contract address of NFT\n   * Required Statements\n   *  - 0x11: CurrentTime Should be Greater than End Time\n   *  - 0x12: Caller Must be Equal to Highest Bidder or Token Owner\n   */\n\n  function claimToken(uint256 _tokenId, address _nftAddress) external nonReentrant {\n    require(block.timestamp > itemsForAuction[_tokenId][_nftAddress].endTime, \"0x11\");\n    require(\n      _msgSender() == itemsForAuction[_tokenId][_nftAddress].highestBidder ||\n        _msgSender() == itemsForAuction[_tokenId][_nftAddress].owner,\n      \"0x12\"\n    );\n    activeItems[itemsForAuction[_tokenId][_nftAddress].tokenAddress][\n      itemsForAuction[_tokenId][_nftAddress].tokenId\n    ] = false;\n    IERC721(itemsForAuction[_tokenId][_nftAddress].tokenAddress).transferFrom(\n      address(this),\n      itemsForAuction[_tokenId][_nftAddress].highestBidder,\n      itemsForAuction[_tokenId][_nftAddress].tokenId\n    );\n    itemsForAuction[_tokenId][_nftAddress].token.transfer(\n      itemsForAuction[_tokenId][_nftAddress].owner,\n      itemsForAuction[_tokenId][_nftAddress].askingPrice\n    );\n    delete itemsForAuction[_tokenId][_nftAddress];\n    biddingItems--;\n    emit BidClaimed(_tokenId, msg.sender, itemsForAuction[_tokenId][_nftAddress].askingPrice);\n  }\n}\n",
  "sourcePath": "/Users/talhajaami/Desktop/KwikTrustMainnet/contracts/KwikTrustMarketplace.sol",
  "compiler": {
    "name": "solc",
    "version": "0.8.4+commit.c7e474f2.Emscripten.clang"
  },
  "schemaVersion": "3.4.10",
  "updatedAt": "2023-01-13T15:27:09.326Z",
  "devdoc": {
    "kind": "dev",
    "methods": {
      "__KwikTrustMarketplace_init()": {
        "details": "Upgradable initializer"
      },
      "addItemToBid(uint256,address,uint256,uint256,address)": {
        "details": "listing an item for bidding",
        "params": {
          "_askingPrice": "mininum price of bidding",
          "_nftAddress": "Contract address of NFT",
          "_time": "ending time of an auction",
          "_token": "ERC20 token address Required Statements  - 0x07: _asking Price must be greater than 0  - 0x08: _time must be greater than Current Time(block.timestamp)",
          "_tokenId": "Token Id of NFT"
        }
      },
      "deListBulkNft(uint256[],address)": {
        "details": "De-list Bulk NFT from martketplace",
        "params": {
          "_nftAddress": "NFT Minting address Required Statements  - 0x06: Caller Must be Owner of Item",
          "_tokenId": "'s of NFT tokenId to be delisted"
        }
      },
      "deListNft(uint256,address)": {
        "details": "De-list single NFT from martketplace",
        "params": {
          "_nftAddress": "NFT Minting address Required Statements  - 0x05: Caller Must be Owner of Item",
          "_tokenId": "NFT tokenId to be delisted"
        }
      },
      "getRoleAdmin(bytes32)": {
        "details": "Returns the admin role that controls `role`. See {grantRole} and {revokeRole}. To change a role's admin, use {_setRoleAdmin}."
      },
      "grantRole(bytes32,address)": {
        "details": "Grants `role` to `account`. If `account` had not been already granted `role`, emits a {RoleGranted} event. Requirements: - the caller must have ``role``'s admin role."
      },
      "hasRole(bytes32,address)": {
        "details": "Returns `true` if `account` has been granted `role`."
      },
      "makeItem(address,uint256,address,uint256)": {
        "details": "list NFT in marketplace",
        "params": {
          "_price": "listing price of token Required Statements  - 0x01: Price must be greater than 0",
          "_tokenId": "token id to be listed"
        }
      },
      "makeItemBulk(address,uint256[],address,uint256)": {
        "details": "list multiple NFTs in marketplace",
        "params": {
          "_nftAddress": "minting contract address",
          "_price": "listing price of token Required Statements  - 0x02: Price must be greater than 0",
          "_tokenId": "array of token ids to be listed"
        }
      },
      "owner()": {
        "details": "Returns the address of the current owner."
      },
      "purchaseItem(uint256,address,uint256)": {
        "details": "purchase NFT from marketplace",
        "params": {
          "_itemId": "NFT token id",
          "_nftAddress": "NFT Contract Adress Required Statements  - 0x03: Item Count Must be Greater than or Equal to _itemId  - 0x04: _amount Must be Must be Greater than or Equal to itemPrice"
        }
      },
      "renounceOwnership()": {
        "details": "Leaves the contract without owner. It will not be possible to call `onlyOwner` functions anymore. Can only be called by the current owner. NOTE: Renouncing ownership will leave the contract without an owner, thereby removing any functionality that is only available to the owner."
      },
      "renounceRole(bytes32,address)": {
        "details": "Revokes `role` from the calling account. Roles are often managed via {grantRole} and {revokeRole}: this function's purpose is to provide a mechanism for accounts to lose their privileges if they are compromised (such as when a trusted device is misplaced). If the calling account had been granted `role`, emits a {RoleRevoked} event. Requirements: - the caller must be `account`."
      },
      "revokeRole(bytes32,address)": {
        "details": "Revokes `role` from `account`. If `account` had been granted `role`, emits a {RoleRevoked} event. Requirements: - the caller must have ``role``'s admin role."
      },
      "supportsInterface(bytes4)": {
        "details": "See {IERC165-supportsInterface}."
      },
      "transferNft(address,uint256,address)": {
        "details": "transfer single NFT",
        "params": {
          "_to": "reciever's address",
          "_tokenID": "token ids to be sent"
        }
      },
      "transferNftBunch(address,uint256[],address)": {
        "details": "transfer multiple NFTs",
        "params": {
          "_to": "reciever's address",
          "_tokenIDs": "token ids to be sent"
        }
      },
      "transferOwnership(address)": {
        "details": "Transfers ownership of the contract to a new account (`newOwner`). Can only be called by the current owner."
      }
    },
    "version": 1
  },
  "userdoc": {
    "kind": "user",
    "methods": {},
    "version": 1
  }
}