{
  "contractName": "KwikTrustFactory",
  "abi": [
    {
      "anonymous": false,
      "inputs": [
        {
          "indexed": false,
          "internalType": "address",
          "name": "_mintingContract",
          "type": "address"
        }
      ],
      "name": "MintingCreated",
      "type": "event"
    },
    {
      "anonymous": false,
      "inputs": [
        {
          "indexed": true,
          "internalType": "bytes32",
          "name": "role",
          "type": "bytes32"
        },
        {
          "indexed": true,
          "internalType": "bytes32",
          "name": "previousAdminRole",
          "type": "bytes32"
        },
        {
          "indexed": true,
          "internalType": "bytes32",
          "name": "newAdminRole",
          "type": "bytes32"
        }
      ],
      "name": "RoleAdminChanged",
      "type": "event"
    },
    {
      "anonymous": false,
      "inputs": [
        {
          "indexed": true,
          "internalType": "bytes32",
          "name": "role",
          "type": "bytes32"
        },
        {
          "indexed": true,
          "internalType": "address",
          "name": "account",
          "type": "address"
        },
        {
          "indexed": true,
          "internalType": "address",
          "name": "sender",
          "type": "address"
        }
      ],
      "name": "RoleGranted",
      "type": "event"
    },
    {
      "anonymous": false,
      "inputs": [
        {
          "indexed": true,
          "internalType": "bytes32",
          "name": "role",
          "type": "bytes32"
        },
        {
          "indexed": true,
          "internalType": "address",
          "name": "account",
          "type": "address"
        },
        {
          "indexed": true,
          "internalType": "address",
          "name": "sender",
          "type": "address"
        }
      ],
      "name": "RoleRevoked",
      "type": "event"
    },
    {
      "inputs": [],
      "name": "DEFAULT_ADMIN_ROLE",
      "outputs": [
        {
          "internalType": "bytes32",
          "name": "",
          "type": "bytes32"
        }
      ],
      "stateMutability": "view",
      "type": "function"
    },
    {
      "inputs": [],
      "name": "DEPLOYER_ROLE",
      "outputs": [
        {
          "internalType": "bytes32",
          "name": "",
          "type": "bytes32"
        }
      ],
      "stateMutability": "view",
      "type": "function"
    },
    {
      "inputs": [
        {
          "internalType": "bytes32",
          "name": "role",
          "type": "bytes32"
        }
      ],
      "name": "getRoleAdmin",
      "outputs": [
        {
          "internalType": "bytes32",
          "name": "",
          "type": "bytes32"
        }
      ],
      "stateMutability": "view",
      "type": "function"
    },
    {
      "inputs": [
        {
          "internalType": "bytes32",
          "name": "role",
          "type": "bytes32"
        },
        {
          "internalType": "address",
          "name": "account",
          "type": "address"
        }
      ],
      "name": "grantRole",
      "outputs": [],
      "stateMutability": "nonpayable",
      "type": "function"
    },
    {
      "inputs": [
        {
          "internalType": "bytes32",
          "name": "role",
          "type": "bytes32"
        },
        {
          "internalType": "address",
          "name": "account",
          "type": "address"
        }
      ],
      "name": "hasRole",
      "outputs": [
        {
          "internalType": "bool",
          "name": "",
          "type": "bool"
        }
      ],
      "stateMutability": "view",
      "type": "function"
    },
    {
      "inputs": [
        {
          "internalType": "string",
          "name": "",
          "type": "string"
        }
      ],
      "name": "nftContractAddress",
      "outputs": [
        {
          "internalType": "contract KwikTrustNFT",
          "name": "",
          "type": "address"
        }
      ],
      "stateMutability": "view",
      "type": "function"
    },
    {
      "inputs": [
        {
          "internalType": "bytes32",
          "name": "role",
          "type": "bytes32"
        },
        {
          "internalType": "address",
          "name": "account",
          "type": "address"
        }
      ],
      "name": "renounceRole",
      "outputs": [],
      "stateMutability": "nonpayable",
      "type": "function"
    },
    {
      "inputs": [
        {
          "internalType": "bytes32",
          "name": "role",
          "type": "bytes32"
        },
        {
          "internalType": "address",
          "name": "account",
          "type": "address"
        }
      ],
      "name": "revokeRole",
      "outputs": [],
      "stateMutability": "nonpayable",
      "type": "function"
    },
    {
      "inputs": [
        {
          "internalType": "bytes4",
          "name": "interfaceId",
          "type": "bytes4"
        }
      ],
      "name": "supportsInterface",
      "outputs": [
        {
          "internalType": "bool",
          "name": "",
          "type": "bool"
        }
      ],
      "stateMutability": "view",
      "type": "function"
    },
    {
      "inputs": [],
      "name": "__KwikTrustFactory_init",
      "outputs": [],
      "stateMutability": "nonpayable",
      "type": "function"
    },
    {
      "inputs": [
        {
          "internalType": "string",
          "name": "_name",
          "type": "string"
        },
        {
          "internalType": "string",
          "name": "_symbol",
          "type": "string"
        },
        {
          "internalType": "address",
          "name": "_validatorRole",
          "type": "address"
        }
      ],
      "name": "deployMintingContract",
      "outputs": [],
      "stateMutability": "nonpayable",
      "type": "function"
    },
    {
      "inputs": [
        {
          "internalType": "string",
          "name": "_contractName",
          "type": "string"
        }
      ],
      "name": "getContractAddress",
      "outputs": [
        {
          "internalType": "address",
          "name": "",
          "type": "address"
        }
      ],
      "stateMutability": "view",
      "type": "function"
    }
  ],
  "bytecode": "0x608060405234801561001057600080fd5b50613c20806100206000396000f3fe60806040523480156200001157600080fd5b5060043610620000c35760003560e01c80633b09b357116200007a5780633b09b357146200019357806350a187b814620001ca57806391d1485414620001e1578063a217fddf14620001f8578063d547741f1462000201578063ecd00261146200021857600080fd5b806301ffc9a714620000c857806304433bbc14620000f4578063248a9ca314620001245780632f2ff15d1462000159578063346a2dd2146200017257806336568abe146200017c575b600080fd5b620000df620000d936600462000adf565b62000240565b60405190151581526020015b60405180910390f35b6200010b6200010536600462000b09565b62000278565b6040516001600160a01b039091168152602001620000eb565b6200014a6200013536600462000a98565b60009081526065602052604090206001015490565b604051908152602001620000eb565b620001706200016a36600462000ab1565b620002ab565b005b62000170620002da565b620001706200018d36600462000ab1565b62000398565b6200010b620001a436600462000b09565b80516020818301810180516097825292820191909301209152546001600160a01b031681565b62000170620001db36600462000b48565b6200041a565b620000df620001f236600462000ab1565b62000533565b6200014a600081565b620001706200021236600462000ab1565b6200055e565b6200014a7ffc425f2263d0df187444b70e47283d622c70181c5baebb1306a01edba1ce184c81565b60006001600160e01b03198216637965db0b60e01b14806200027257506301ffc9a760e01b6001600160e01b03198316145b92915050565b60006097826040516200028c919062000bf0565b908152604051908190036020019020546001600160a01b031692915050565b600082815260656020526040902060010154620002c9813362000588565b620002d58383620005f7565b505050565b600054610100900460ff1680620002f4575060005460ff16155b6200031c5760405162461bcd60e51b8152600401620003139062000cea565b60405180910390fd5b600054610100900460ff161580156200033f576000805461ffff19166101011790555b6200034962000681565b62000356600033620006fb565b620003827ffc425f2263d0df187444b70e47283d622c70181c5baebb1306a01edba1ce184c33620002ab565b801562000395576000805461ff00191690555b50565b6001600160a01b03811633146200040a5760405162461bcd60e51b815260206004820152602f60248201527f416363657373436f6e74726f6c3a2063616e206f6e6c792072656e6f756e636560448201526e103937b632b9903337b91039b2b63360891b606482015260840162000313565b62000416828262000707565b5050565b620004467ffc425f2263d0df187444b70e47283d622c70181c5baebb1306a01edba1ce184c3362000533565b6200047d5760405162461bcd60e51b815260040162000313906020808252600490820152633078303160e01b604082015260600190565b6000838333846040516200049190620009de565b620004a0949392919062000c9c565b604051809103906000f080158015620004bd573d6000803e3d6000fd5b50905080609785604051620004d3919062000bf0565b9081526040516020918190038201812080546001600160a01b0319166001600160a01b0394851617905591831682527fb9699be287f67e18d4bd60ef46a3b148ecc7ce65e2ccc3205467bdb4b841e7be910160405180910390a150505050565b60009182526065602090815260408084206001600160a01b0393909316845291905290205460ff1690565b6000828152606560205260409020600101546200057c813362000588565b620002d5838362000707565b62000594828262000533565b6200041657620005af816001600160a01b0316601462000771565b620005bc83602062000771565b604051602001620005cf92919062000c0e565b60408051601f198184030181529082905262461bcd60e51b8252620003139160040162000c87565b62000603828262000533565b620004165760008281526065602090815260408083206001600160a01b03851684529091529020805460ff191660011790556200063d3390565b6001600160a01b0316816001600160a01b0316837f2f8788117e7eff1d82e926ec794901d17c78024a50270940304540a733656f0d60405160405180910390a45050565b600054610100900460ff16806200069b575060005460ff16155b620006ba5760405162461bcd60e51b8152600401620003139062000cea565b600054610100900460ff16158015620006dd576000805461ffff19166101011790555b620006e76200096e565b620006f16200096e565b620003826200096e565b620004168282620005f7565b62000713828262000533565b15620004165760008281526065602090815260408083206001600160a01b0385168085529252808320805460ff1916905551339285917ff6391f5c32d9c69d2a47ea670b442974b53935d1edc7fd64eb21e047a839171b9190a45050565b606060006200078283600262000d53565b6200078f90600262000d38565b67ffffffffffffffff811115620007b657634e487b7160e01b600052604160045260246000fd5b6040519080825280601f01601f191660200182016040528015620007e1576020820181803683370190505b509050600360fc1b816000815181106200080b57634e487b7160e01b600052603260045260246000fd5b60200101906001600160f81b031916908160001a905350600f60fb1b816001815181106200084957634e487b7160e01b600052603260045260246000fd5b60200101906001600160f81b031916908160001a90535060006200086f84600262000d53565b6200087c90600162000d38565b90505b600181111562000916576f181899199a1a9b1b9c1cb0b131b232b360811b85600f1660108110620008c057634e487b7160e01b600052603260045260246000fd5b1a60f81b828281518110620008e557634e487b7160e01b600052603260045260246000fd5b60200101906001600160f81b031916908160001a90535060049490941c936200090e8162000da8565b90506200087f565b508315620009675760405162461bcd60e51b815260206004820181905260248201527f537472696e67733a20686578206c656e67746820696e73756666696369656e74604482015260640162000313565b9392505050565b600054610100900460ff168062000988575060005460ff16155b620009a75760405162461bcd60e51b8152600401620003139062000cea565b600054610100900460ff1615801562000382576000805461ffff1916610101179055801562000395576000805461ff001916905550565b612dfc8062000def83390190565b80356001600160a01b038116811462000a0457600080fd5b919050565b600082601f83011262000a1a578081fd5b813567ffffffffffffffff8082111562000a385762000a3862000dd8565b604051601f8301601f19908116603f0116810190828211818310171562000a635762000a6362000dd8565b8160405283815286602085880101111562000a7c578485fd5b8360208701602083013792830160200193909352509392505050565b60006020828403121562000aaa578081fd5b5035919050565b6000806040838503121562000ac4578081fd5b8235915062000ad660208401620009ec565b90509250929050565b60006020828403121562000af1578081fd5b81356001600160e01b03198116811462000967578182fd5b60006020828403121562000b1b578081fd5b813567ffffffffffffffff81111562000b32578182fd5b62000b408482850162000a09565b949350505050565b60008060006060848603121562000b5d578081fd5b833567ffffffffffffffff8082111562000b75578283fd5b62000b838783880162000a09565b9450602086013591508082111562000b99578283fd5b5062000ba88682870162000a09565b92505062000bb960408501620009ec565b90509250925092565b6000815180845262000bdc81602086016020860162000d75565b601f01601f19169290920160200192915050565b6000825162000c0481846020870162000d75565b9190910192915050565b7f416363657373436f6e74726f6c3a206163636f756e742000000000000000000081526000835162000c4881601785016020880162000d75565b7001034b99036b4b9b9b4b733903937b6329607d1b601791840191820152835162000c7b81602884016020880162000d75565b01602801949350505050565b60208152600062000967602083018462000bc2565b60808152600062000cb1608083018762000bc2565b828103602084015262000cc5818762000bc2565b6001600160a01b03958616604085015293909416606090920191909152509392505050565b6020808252602e908201527f496e697469616c697a61626c653a20636f6e747261637420697320616c72656160408201526d191e481a5b9a5d1a585b1a5e995960921b606082015260800190565b6000821982111562000d4e5762000d4e62000dc2565b500190565b600081600019048311821515161562000d705762000d7062000dc2565b500290565b60005b8381101562000d9257818101518382015260200162000d78565b8381111562000da2576000848401525b50505050565b60008162000dba5762000dba62000dc2565b506000190190565b634e487b7160e01b600052601160045260246000fd5b634e487b7160e01b600052604160045260246000fdfe6101406040523480156200001257600080fd5b5060405162002dfc38038062002dfc8339810160408190526200003591620003dc565b6040518060400160405280601181526020017025bbb4b5aa393ab9ba16ab37bab1b432b960791b815250604051806040016040528060018152602001603160f81b815250858581600090805190602001906200009392919062000266565b508051620000a990600190602084019062000266565b5050825160208085019190912083518483012060e08290526101008190524660a0818152604080517f8b73c3c69bb8fe3d512ecc4cf759cc79239f7b179b0ffacaa9a75d522b39400f81880181905281830187905260608201869052608082019490945230818401528151808203909301835260c0019052805194019390932091935091906080523060601b60c052610120525062000150925060009150849050620001b2565b6200017c7f9f2df0fed2c77648de5860a4cc508cd0818c85b8b8a1ab4ceeef8d981c8956a683620001b2565b620001a87f21702c8af46127c7fa207f89d0b0a8441bb32959a0ac7df790e9ab1a25c9892682620001b2565b50505050620004bb565b620001be8282620001c2565b5050565b60008281526007602090815260408083206001600160a01b038516845290915290205460ff16620001be5760008281526007602090815260408083206001600160a01b03851684529091529020805460ff19166001179055620002223390565b6001600160a01b0316816001600160a01b0316837f2f8788117e7eff1d82e926ec794901d17c78024a50270940304540a733656f0d60405160405180910390a45050565b828054620002749062000468565b90600052602060002090601f016020900481019282620002985760008555620002e3565b82601f10620002b357805160ff1916838001178555620002e3565b82800160010185558215620002e3579182015b82811115620002e3578251825591602001919060010190620002c6565b50620002f1929150620002f5565b5090565b5b80821115620002f15760008155600101620002f6565b80516001600160a01b03811681146200032457600080fd5b919050565b600082601f8301126200033a578081fd5b81516001600160401b0380821115620003575762000357620004a5565b604051601f8301601f19908116603f01168101908282118183101715620003825762000382620004a5565b816040528381526020925086838588010111156200039e578485fd5b8491505b83821015620003c15785820183015181830184015290820190620003a2565b83821115620003d257848385830101525b9695505050505050565b60008060008060808587031215620003f2578384fd5b84516001600160401b038082111562000409578586fd5b620004178883890162000329565b955060208701519150808211156200042d578485fd5b506200043c8782880162000329565b9350506200044d604086016200030c565b91506200045d606086016200030c565b905092959194509250565b600181811c908216806200047d57607f821691505b602082108114156200049f57634e487b7160e01b600052602260045260246000fd5b50919050565b634e487b7160e01b600052604160045260246000fd5b60805160a05160c05160601c60e05161010051610120516128ee6200050e6000396000611e6501526000611eb401526000611e8f01526000611de801526000611e1201526000611e3c01526128ee6000f3fe608060405234801561001057600080fd5b50600436106101735760003560e01c80636352211e116100de578063b88d4fde11610097578063c87b56dd11610071578063c87b56dd14610345578063d539139314610358578063d547741f1461037f578063e985e9c51461039257600080fd5b8063b88d4fde146102f8578063c3e121451461030b578063c49baebe1461031e57600080fd5b80636352211e1461029c57806370a08231146102af57806391d14854146102c257806395d89b41146102d5578063a217fddf146102dd578063a22cb465146102e557600080fd5b80631c351a9d116101305780631c351a9d1461021a57806323b872dd1461022d578063248a9ca3146102405780632f2ff15d1461026357806336568abe1461027657806342842e0e1461028957600080fd5b806301ffc9a71461017857806306fdde03146101a0578063081812fc146101b5578063095ea7b3146101e057806318160ddd146101f55780631a8f1a7814610207575b600080fd5b61018b6101863660046123dd565b6103ce565b60405190151581526020015b60405180910390f35b6101a86103ee565b6040516101979190612647565b6101c86101c33660046123a1565b610480565b6040516001600160a01b039091168152602001610197565b6101f36101ee366004612286565b61050d565b005b6008545b604051908152602001610197565b6101f96102153660046122b1565b610623565b6101f9610228366004612415565b610717565b6101f361023b36600461219c565b6107b6565b6101f961024e3660046123a1565b60009081526007602052604090206001015490565b6101f36102713660046123b9565b6107e7565b6101f36102843660046123b9565b61080d565b6101f361029736600461219c565b61088b565b6101c86102aa3660046123a1565b6108a6565b6101f96102bd366004612148565b61091d565b61018b6102d03660046123b9565b6109a4565b6101a86109cf565b6101f9600081565b6101f36102f3366004612259565b6109de565b6101f36103063660046121dc565b6109e9565b6101f961031936600461245a565b610a21565b6101f97f21702c8af46127c7fa207f89d0b0a8441bb32959a0ac7df790e9ab1a25c9892681565b6101a86103533660046123a1565b610bf9565b6101f97f9f2df0fed2c77648de5860a4cc508cd0818c85b8b8a1ab4ceeef8d981c8956a681565b6101f361038d3660046123b9565b610d70565b61018b6103a0366004612164565b6001600160a01b03918216600090815260056020908152604080832093909416825291909152205460ff1690565b60006103d982610d96565b806103e857506103e882610de6565b92915050565b6060600080546103fd906127d3565b80601f0160208091040260200160405190810160405280929190818152602001828054610429906127d3565b80156104765780601f1061044b57610100808354040283529160200191610476565b820191906000526020600020905b81548152906001019060200180831161045957829003601f168201915b5050505050905090565b600061048b82610e0b565b6104f15760405162461bcd60e51b815260206004820152602c60248201527f4552433732313a20617070726f76656420717565727920666f72206e6f6e657860448201526b34b9ba32b73a103a37b5b2b760a11b60648201526084015b60405180910390fd5b506000908152600460205260409020546001600160a01b031690565b6000610518826108a6565b9050806001600160a01b0316836001600160a01b031614156105865760405162461bcd60e51b815260206004820152602160248201527f4552433732313a20617070726f76616c20746f2063757272656e74206f776e656044820152603960f91b60648201526084016104e8565b336001600160a01b03821614806105a257506105a281336103a0565b6106145760405162461bcd60e51b815260206004820152603860248201527f4552433732313a20617070726f76652063616c6c6572206973206e6f74206f7760448201527f6e6572206e6f7220617070726f76656420666f7220616c6c000000000000000060648201526084016104e8565b61061e8383610e28565b505050565b60007f9f2df0fed2c77648de5860a4cc508cd0818c85b8b8a1ab4ceeef8d981c8956a66106508133610e96565b60005b84518110156106cd576008805490600061066c8361280e565b919050555061067d33600854610efa565b6106b06008548683815181106106a357634e487b7160e01b600052603260045260246000fd5b6020026020010151610f14565b6106bb8460016109de565b806106c58161280e565b915050610653565b506008546040805133815260208101929092527f52ddc1105ac00cc82ebb4d05084873a50cab6c87e239c78e8f2f223ef6da30c591015b60405180910390a1505060085492915050565b60007f9f2df0fed2c77648de5860a4cc508cd0818c85b8b8a1ab4ceeef8d981c8956a66107448133610e96565b600880549060006107548361280e565b919050555061076533600854610efa565b61077160085485610f14565b61077c8360016109de565b6008546040805133815260208101929092527f19c6b36121d52389fa51be7ace70982e05e3fa77df34fbe4fe438e1972fc2bbc9101610704565b6107c03382610f9f565b6107dc5760405162461bcd60e51b81526004016104e8906126ac565b61061e838383611085565b6000828152600760205260409020600101546108038133610e96565b61061e8383611221565b6001600160a01b038116331461087d5760405162461bcd60e51b815260206004820152602f60248201527f416363657373436f6e74726f6c3a2063616e206f6e6c792072656e6f756e636560448201526e103937b632b9903337b91039b2b63360891b60648201526084016104e8565b61088782826112a7565b5050565b61061e838383604051806020016040528060008152506109e9565b6000818152600260205260408120546001600160a01b0316806103e85760405162461bcd60e51b815260206004820152602960248201527f4552433732313a206f776e657220717565727920666f72206e6f6e657869737460448201526832b73a103a37b5b2b760b91b60648201526084016104e8565b60006001600160a01b0382166109885760405162461bcd60e51b815260206004820152602a60248201527f4552433732313a2062616c616e636520717565727920666f7220746865207a65604482015269726f206164647265737360b01b60648201526084016104e8565b506001600160a01b031660009081526003602052604090205490565b60009182526007602090815260408084206001600160a01b0393909316845291905290205460ff1690565b6060600180546103fd906127d3565b61088733838361130e565b6109f33383610f9f565b610a0f5760405162461bcd60e51b81526004016104e8906126ac565b610a1b848484846113dd565b50505050565b6040805160c081018252878152602081018790529081018590526001600160a01b0380851660608301528381166080830152821660a0820152600090859082610a6982611410565b9050610a957f21702c8af46127c7fa207f89d0b0a8441bb32959a0ac7df790e9ab1a25c98926826109a4565b610aca5760405162461bcd60e51b81526004016104e8906020808252600490820152633078303360e01b604082015260600190565b60088054906000610ada8361280e565b9190505550610aeb85600854610efa565b610afb6008548360000151610f14565b610b088533600854611085565b606082015160208301516040516323b872dd60e01b81523360048201526001600160a01b03888116602483015260448201929092529116906323b872dd90606401602060405180830381600087803b158015610b6357600080fd5b505af1158015610b77573d6000803e3d6000fd5b505050506040513d601f19601f82011682018060405250810190610b9b9190612385565b50610ba78660016109de565b81516008546040517f2aa92a1cd988faba52999b916ab16c32332177a120fb7f51ae13d986733a3cd492610be0928992339291906125cd565b60405180910390a1505060085498975050505050505050565b6060610c0482610e0b565b610c6a5760405162461bcd60e51b815260206004820152603160248201527f45524337323155524953746f726167653a2055524920717565727920666f72206044820152703737b732bc34b9ba32b73a103a37b5b2b760791b60648201526084016104e8565b60008281526006602052604081208054610c83906127d3565b80601f0160208091040260200160405190810160405280929190818152602001828054610caf906127d3565b8015610cfc5780601f10610cd157610100808354040283529160200191610cfc565b820191906000526020600020905b815481529060010190602001808311610cdf57829003601f168201915b505050505090506000610d1a60408051602081019091526000815290565b9050805160001415610d2d575092915050565b815115610d5f578082604051602001610d47929190612529565b60405160208183030381529060405292505050919050565b610d6884611433565b949350505050565b600082815260076020526040902060010154610d8c8133610e96565b61061e83836112a7565b60006001600160e01b031982166380ac58cd60e01b1480610dc757506001600160e01b03198216635b5e139f60e01b145b806103e857506301ffc9a760e01b6001600160e01b03198316146103e8565b60006001600160e01b03198216637965db0b60e01b14806103e857506103e882610d96565b6000908152600260205260409020546001600160a01b0316151590565b600081815260046020526040902080546001600160a01b0319166001600160a01b0384169081179091558190610e5d826108a6565b6001600160a01b03167f8c5be1e5ebec7d5bd14f71427d1e84f3dd0314c0f7b2291e5b200ac8c7c3b92560405160405180910390a45050565b610ea082826109a4565b61088757610eb8816001600160a01b0316601461150a565b610ec383602061150a565b604051602001610ed4929190612558565b60408051601f198184030181529082905262461bcd60e51b82526104e891600401612647565b6108878282604051806020016040528060008152506116ec565b610f1d82610e0b565b610f805760405162461bcd60e51b815260206004820152602e60248201527f45524337323155524953746f726167653a2055524920736574206f66206e6f6e60448201526d32bc34b9ba32b73a103a37b5b2b760911b60648201526084016104e8565b6000828152600660209081526040909120825161061e92840190612028565b6000610faa82610e0b565b61100b5760405162461bcd60e51b815260206004820152602c60248201527f4552433732313a206f70657261746f7220717565727920666f72206e6f6e657860448201526b34b9ba32b73a103a37b5b2b760a11b60648201526084016104e8565b6000611016836108a6565b9050806001600160a01b0316846001600160a01b031614806110515750836001600160a01b031661104684610480565b6001600160a01b0316145b80610d6857506001600160a01b0380821660009081526005602090815260408083209388168352929052205460ff16610d68565b826001600160a01b0316611098826108a6565b6001600160a01b0316146110fc5760405162461bcd60e51b815260206004820152602560248201527f4552433732313a207472616e736665722066726f6d20696e636f72726563742060448201526437bbb732b960d91b60648201526084016104e8565b6001600160a01b03821661115e5760405162461bcd60e51b8152602060048201526024808201527f4552433732313a207472616e7366657220746f20746865207a65726f206164646044820152637265737360e01b60648201526084016104e8565b611169600082610e28565b6001600160a01b0383166000908152600360205260408120805460019290611192908490612779565b90915550506001600160a01b03821660009081526003602052604081208054600192906111c090849061272e565b909155505060008181526002602052604080822080546001600160a01b0319166001600160a01b0386811691821790925591518493918716917fddf252ad1be2c89b69c2b068fc378daa952ba7f163c4a11628f55a4df523b3ef91a4505050565b61122b82826109a4565b6108875760008281526007602090815260408083206001600160a01b03851684529091529020805460ff191660011790556112633390565b6001600160a01b0316816001600160a01b0316837f2f8788117e7eff1d82e926ec794901d17c78024a50270940304540a733656f0d60405160405180910390a45050565b6112b182826109a4565b156108875760008281526007602090815260408083206001600160a01b0385168085529252808320805460ff1916905551339285917ff6391f5c32d9c69d2a47ea670b442974b53935d1edc7fd64eb21e047a839171b9190a45050565b816001600160a01b0316836001600160a01b031614156113705760405162461bcd60e51b815260206004820152601960248201527f4552433732313a20617070726f766520746f2063616c6c65720000000000000060448201526064016104e8565b6001600160a01b03838116600081815260056020908152604080832094871680845294825291829020805460ff191686151590811790915591519182527f17307eab39ab6107e8899845ad3d59bd9653f200f220920489ca2b5937696c31910160405180910390a3505050565b6113e8848484611085565b6113f48484848461171f565b610a1b5760405162461bcd60e51b81526004016104e89061265a565b60008061141c8361182c565b905061142c8184604001516118a8565b9392505050565b606061143e82610e0b565b6114a25760405162461bcd60e51b815260206004820152602f60248201527f4552433732314d657461646174613a2055524920717565727920666f72206e6f60448201526e3732bc34b9ba32b73a103a37b5b2b760891b60648201526084016104e8565b60006114b960408051602081019091526000815290565b905060008151116114d9576040518060200160405280600081525061142c565b806114e3846118cc565b6040516020016114f4929190612529565b6040516020818303038152906040529392505050565b6060600061151983600261275a565b61152490600261272e565b67ffffffffffffffff81111561154a57634e487b7160e01b600052604160045260246000fd5b6040519080825280601f01601f191660200182016040528015611574576020820181803683370190505b509050600360fc1b8160008151811061159d57634e487b7160e01b600052603260045260246000fd5b60200101906001600160f81b031916908160001a905350600f60fb1b816001815181106115da57634e487b7160e01b600052603260045260246000fd5b60200101906001600160f81b031916908160001a90535060006115fe84600261275a565b61160990600161272e565b90505b600181111561169d576f181899199a1a9b1b9c1cb0b131b232b360811b85600f166010811061164b57634e487b7160e01b600052603260045260246000fd5b1a60f81b82828151811061166f57634e487b7160e01b600052603260045260246000fd5b60200101906001600160f81b031916908160001a90535060049490941c93611696816127bc565b905061160c565b50831561142c5760405162461bcd60e51b815260206004820181905260248201527f537472696e67733a20686578206c656e67746820696e73756666696369656e7460448201526064016104e8565b6116f683836119e6565b611703600084848461171f565b61061e5760405162461bcd60e51b81526004016104e89061265a565b60006001600160a01b0384163b1561182157604051630a85bd0160e11b81526001600160a01b0385169063150b7a029061176390339089908890889060040161260a565b602060405180830381600087803b15801561177d57600080fd5b505af19250505080156117ad575060408051601f3d908101601f191682019092526117aa918101906123f9565b60015b611807573d8080156117db576040519150601f19603f3d011682016040523d82523d6000602084013e6117e0565b606091505b5080516117ff5760405162461bcd60e51b81526004016104e89061265a565b805181602001fd5b6001600160e01b031916630a85bd0160e11b149050610d68565b506001949350505050565b8051805160209182012081830151606080850151604080517fafd4a0a9e0726134058040d66abdbb2c67e151cbbd93c73466f53a5a9ae029b3968101969096528501939093528301526001600160a01b031660808201526000906103e89060a00160405160208183030381529060405280519060200120611b19565b60008060006118b78585611b67565b915091506118c481611bd7565b509392505050565b6060816118f05750506040805180820190915260018152600360fc1b602082015290565b8160005b811561191a57806119048161280e565b91506119139050600a83612746565b91506118f4565b60008167ffffffffffffffff81111561194357634e487b7160e01b600052604160045260246000fd5b6040519080825280601f01601f19166020018201604052801561196d576020820181803683370190505b5090505b8415610d6857611982600183612779565b915061198f600a86612829565b61199a90603061272e565b60f81b8183815181106119bd57634e487b7160e01b600052603260045260246000fd5b60200101906001600160f81b031916908160001a9053506119df600a86612746565b9450611971565b6001600160a01b038216611a3c5760405162461bcd60e51b815260206004820181905260248201527f4552433732313a206d696e7420746f20746865207a65726f206164647265737360448201526064016104e8565b611a4581610e0b565b15611a925760405162461bcd60e51b815260206004820152601c60248201527f4552433732313a20746f6b656e20616c7265616479206d696e7465640000000060448201526064016104e8565b6001600160a01b0382166000908152600360205260408120805460019290611abb90849061272e565b909155505060008181526002602052604080822080546001600160a01b0319166001600160a01b03861690811790915590518392907fddf252ad1be2c89b69c2b068fc378daa952ba7f163c4a11628f55a4df523b3ef908290a45050565b60006103e8611b26611ddb565b8360405161190160f01b6020820152602281018390526042810182905260009060620160405160208183030381529060405280519060200120905092915050565b600080825160411415611b9e5760208301516040840151606085015160001a611b9287828585611f02565b94509450505050611bd0565b825160401415611bc85760208301516040840151611bbd868383611fef565b935093505050611bd0565b506000905060025b9250929050565b6000816004811115611bf957634e487b7160e01b600052602160045260246000fd5b1415611c025750565b6001816004811115611c2457634e487b7160e01b600052602160045260246000fd5b1415611c725760405162461bcd60e51b815260206004820152601860248201527f45434453413a20696e76616c6964207369676e6174757265000000000000000060448201526064016104e8565b6002816004811115611c9457634e487b7160e01b600052602160045260246000fd5b1415611ce25760405162461bcd60e51b815260206004820152601f60248201527f45434453413a20696e76616c6964207369676e6174757265206c656e6774680060448201526064016104e8565b6003816004811115611d0457634e487b7160e01b600052602160045260246000fd5b1415611d5d5760405162461bcd60e51b815260206004820152602260248201527f45434453413a20696e76616c6964207369676e6174757265202773272076616c604482015261756560f01b60648201526084016104e8565b6004816004811115611d7f57634e487b7160e01b600052602160045260246000fd5b1415611dd85760405162461bcd60e51b815260206004820152602260248201527f45434453413a20696e76616c6964207369676e6174757265202776272076616c604482015261756560f01b60648201526084016104e8565b50565b6000306001600160a01b037f000000000000000000000000000000000000000000000000000000000000000016148015611e3457507f000000000000000000000000000000000000000000000000000000000000000046145b15611e5e57507f000000000000000000000000000000000000000000000000000000000000000090565b50604080517f00000000000000000000000000000000000000000000000000000000000000006020808301919091527f0000000000000000000000000000000000000000000000000000000000000000828401527f000000000000000000000000000000000000000000000000000000000000000060608301524660808301523060a0808401919091528351808403909101815260c0909201909252805191012090565b6000807f7fffffffffffffffffffffffffffffff5d576e7357a4501ddfe92f46681b20a0831115611f395750600090506003611fe6565b8460ff16601b14158015611f5157508460ff16601c14155b15611f625750600090506004611fe6565b6040805160008082526020820180845289905260ff881692820192909252606081018690526080810185905260019060a0016020604051602081039080840390855afa158015611fb6573d6000803e3d6000fd5b5050604051601f1901519150506001600160a01b038116611fdf57600060019250925050611fe6565b9150600090505b94509492505050565b6000806001600160ff1b0383168161200c60ff86901c601b61272e565b905061201a87828885611f02565b935093505050935093915050565b828054612034906127d3565b90600052602060002090601f016020900481019282612056576000855561209c565b82601f1061206f57805160ff191683800117855561209c565b8280016001018555821561209c579182015b8281111561209c578251825591602001919060010190612081565b506120a89291506120ac565b5090565b5b808211156120a857600081556001016120ad565b600067ffffffffffffffff8311156120db576120db612869565b6120ee601f8401601f19166020016126fd565b905082815283838301111561210257600080fd5b828260208301376000602084830101529392505050565b80356121248161287f565b919050565b600082601f830112612139578081fd5b61142c838335602085016120c1565b600060208284031215612159578081fd5b813561142c8161287f565b60008060408385031215612176578081fd5b82356121818161287f565b915060208301356121918161287f565b809150509250929050565b6000806000606084860312156121b0578081fd5b83356121bb8161287f565b925060208401356121cb8161287f565b929592945050506040919091013590565b600080600080608085870312156121f1578081fd5b84356121fc8161287f565b9350602085013561220c8161287f565b925060408501359150606085013567ffffffffffffffff81111561222e578182fd5b8501601f8101871361223e578182fd5b61224d878235602084016120c1565b91505092959194509250565b6000806040838503121561226b578182fd5b82356122768161287f565b9150602083013561219181612894565b60008060408385031215612298578182fd5b82356122a38161287f565b946020939093013593505050565b600080604083850312156122c3578182fd5b823567ffffffffffffffff808211156122da578384fd5b818501915085601f8301126122ed578384fd5b813560208282111561230157612301612869565b8160051b6123108282016126fd565b8381528281019086840183880185018c101561232a57898afd5b8993505b8584101561236757803587811115612344578a8bfd5b6123528d87838c0101612129565b8452506001939093019291840191840161232e565b509750612378915050878201612119565b9450505050509250929050565b600060208284031215612396578081fd5b815161142c81612894565b6000602082840312156123b2578081fd5b5035919050565b600080604083850312156123cb578182fd5b8235915060208301356121918161287f565b6000602082840312156123ee578081fd5b813561142c816128a2565b60006020828403121561240a578081fd5b815161142c816128a2565b60008060408385031215612427578182fd5b823567ffffffffffffffff81111561243d578283fd5b61244985828601612129565b92505060208301356121918161287f565b60008060008060008060c08789031215612472578384fd5b863567ffffffffffffffff80821115612489578586fd5b6124958a838b01612129565b97506020890135965060408901359150808211156124b1578586fd5b506124be89828a01612129565b94505060608701356124cf8161287f565b925060808701356124df8161287f565b915060a08701356124ef8161287f565b809150509295509295509295565b60008151808452612515816020860160208601612790565b601f01601f19169290920160200192915050565b6000835161253b818460208801612790565b83519083019061254f818360208801612790565b01949350505050565b7f416363657373436f6e74726f6c3a206163636f756e7420000000000000000000815260008351612590816017850160208801612790565b7001034b99036b4b9b9b4b733903937b6329607d1b60179184019182015283516125c1816028840160208801612790565b01602801949350505050565b6001600160a01b038581168252841660208201526080604082018190526000906125f9908301856124fd565b905082606083015295945050505050565b6001600160a01b038581168252841660208201526040810183905260806060820181905260009061263d908301846124fd565b9695505050505050565b60208152600061142c60208301846124fd565b60208082526032908201527f4552433732313a207472616e7366657220746f206e6f6e20455243373231526560408201527131b2b4bb32b91034b6b83632b6b2b73a32b960711b606082015260800190565b60208082526031908201527f4552433732313a207472616e736665722063616c6c6572206973206e6f74206f6040820152701ddb995c881b9bdc88185c1c1c9bdd9959607a1b606082015260800190565b604051601f8201601f1916810167ffffffffffffffff8111828210171561272657612726612869565b604052919050565b600082198211156127415761274161283d565b500190565b60008261275557612755612853565b500490565b60008160001904831182151516156127745761277461283d565b500290565b60008282101561278b5761278b61283d565b500390565b60005b838110156127ab578181015183820152602001612793565b83811115610a1b5750506000910152565b6000816127cb576127cb61283d565b506000190190565b600181811c908216806127e757607f821691505b6020821081141561280857634e487b7160e01b600052602260045260246000fd5b50919050565b60006000198214156128225761282261283d565b5060010190565b60008261283857612838612853565b500690565b634e487b7160e01b600052601160045260246000fd5b634e487b7160e01b600052601260045260246000fd5b634e487b7160e01b600052604160045260246000fd5b6001600160a01b0381168114611dd857600080fd5b8015158114611dd857600080fd5b6001600160e01b031981168114611dd857600080fdfea264697066735822122087077bfb761cd0769d5c242480777ccea0bad686aca7ec35c9a689aecad2be4d64736f6c63430008040033a2646970667358221220d4ad0cec511e58501e2713084abc491dd82347c75ffc020172b61702d108fd1c64736f6c63430008040033",
  "immutableReferences": {},
  "source": "// SPDX-License-Identifier: MIT\npragma solidity ^0.8.4;\n\nimport \"./KwikTrustNFT.sol\";\nimport \"@openzeppelin/contracts-upgradeable/access/AccessControlUpgradeable.sol\";\n\ncontract KwikTrustFactory is AccessControlUpgradeable {\n  // Roles role new contract deployment\n  bytes32 public constant DEPLOYER_ROLE = keccak256(\"DEPLOYER_ROLE\");\n\n  // mapping to store contract address against contract name\n  mapping(string => KwikTrustNFT) public nftContractAddress;\n\n  // event to emit contract address after deployment\n  event MintingCreated(address _mintingContract);\n\n  /**\n   * @dev Upgradable initializer\n   */\n\n  function __KwikTrustFactory_init() external initializer {\n    __AccessControl_init();\n    _setupRole(DEFAULT_ADMIN_ROLE, msg.sender);\n    grantRole(DEPLOYER_ROLE, msg.sender);\n  }\n\n  /**\n   * @dev Upgradable initializer\n   * @param _name Name of contract\n   * @param _symbol Symbol of contract\n   * @param _validatorRole lazyminting validator role\n   */\n\n  function deployMintingContract(\n    string memory _name,\n    string memory _symbol,\n    address _validatorRole\n  ) public {\n    require(hasRole(DEPLOYER_ROLE, msg.sender), \"0x01\");\n    KwikTrustNFT nftContract = new KwikTrustNFT(_name, _symbol, msg.sender, _validatorRole);\n    nftContractAddress[_name] = nftContract;\n    emit MintingCreated(address(nftContract));\n  }\n\n  /**\n   * @dev Returns the contract address against the contract name\n   * @param _contractName NAME of contract\n   */\n\n  function getContractAddress(string memory _contractName) public view returns (address) {\n    return address(nftContractAddress[_contractName]);\n  }\n}\n",
  "sourcePath": "/Users/talhajaami/Desktop/KwikTrustMainnet/contracts/KwikTrustFactory.sol",
  "compiler": {
    "name": "solc",
    "version": "0.8.4+commit.c7e474f2.Emscripten.clang"
  },
  "schemaVersion": "3.4.10",
  "updatedAt": "2023-01-13T15:27:09.322Z",
  "devdoc": {
    "kind": "dev",
    "methods": {
      "__KwikTrustFactory_init()": {
        "details": "Upgradable initializer"
      },
      "deployMintingContract(string,string,address)": {
        "details": "Upgradable initializer",
        "params": {
          "_name": "Name of contract",
          "_symbol": "Symbol of contract",
          "_validatorRole": "lazyminting validator role"
        }
      },
      "getContractAddress(string)": {
        "details": "Returns the contract address against the contract name",
        "params": {
          "_contractName": "NAME of contract"
        }
      },
      "getRoleAdmin(bytes32)": {
        "details": "Returns the admin role that controls `role`. See {grantRole} and {revokeRole}. To change a role's admin, use {_setRoleAdmin}."
      },
      "grantRole(bytes32,address)": {
        "details": "Grants `role` to `account`. If `account` had not been already granted `role`, emits a {RoleGranted} event. Requirements: - the caller must have ``role``'s admin role."
      },
      "hasRole(bytes32,address)": {
        "details": "Returns `true` if `account` has been granted `role`."
      },
      "renounceRole(bytes32,address)": {
        "details": "Revokes `role` from the calling account. Roles are often managed via {grantRole} and {revokeRole}: this function's purpose is to provide a mechanism for accounts to lose their privileges if they are compromised (such as when a trusted device is misplaced). If the calling account had been granted `role`, emits a {RoleRevoked} event. Requirements: - the caller must be `account`."
      },
      "revokeRole(bytes32,address)": {
        "details": "Revokes `role` from `account`. If `account` had been granted `role`, emits a {RoleRevoked} event. Requirements: - the caller must have ``role``'s admin role."
      },
      "supportsInterface(bytes4)": {
        "details": "See {IERC165-supportsInterface}."
      }
    },
    "version": 1
  },
  "userdoc": {
    "kind": "user",
    "methods": {},
    "version": 1
  }
}